{
  "contractName": "Dex",
  "abi": [
    {
      "inputs": [],
      "stateMutability": "nonpayable",
      "type": "constructor"
    },
    {
      "anonymous": false,
      "inputs": [
        {
          "indexed": false,
          "internalType": "uint256",
          "name": "tradeId",
          "type": "uint256"
        },
        {
          "indexed": false,
          "internalType": "uint256",
          "name": "orderId",
          "type": "uint256"
        },
        {
          "indexed": true,
          "internalType": "bytes32",
          "name": "ticker",
          "type": "bytes32"
        },
        {
          "indexed": true,
          "internalType": "address",
          "name": "trader1",
          "type": "address"
        },
        {
          "indexed": true,
          "internalType": "address",
          "name": "trader2",
          "type": "address"
        },
        {
          "indexed": false,
          "internalType": "uint256",
          "name": "amount",
          "type": "uint256"
        },
        {
          "indexed": false,
          "internalType": "uint256",
          "name": "price",
          "type": "uint256"
        },
        {
          "indexed": false,
          "internalType": "uint256",
          "name": "date",
          "type": "uint256"
        }
      ],
      "name": "NewTrade",
      "type": "event"
    },
    {
      "inputs": [],
      "name": "admin",
      "outputs": [
        {
          "internalType": "address",
          "name": "",
          "type": "address"
        }
      ],
      "stateMutability": "view",
      "type": "function"
    },
    {
      "inputs": [],
      "name": "nextOrderId",
      "outputs": [
        {
          "internalType": "uint256",
          "name": "",
          "type": "uint256"
        }
      ],
      "stateMutability": "view",
      "type": "function"
    },
    {
      "inputs": [],
      "name": "nextTradeId",
      "outputs": [
        {
          "internalType": "uint256",
          "name": "",
          "type": "uint256"
        }
      ],
      "stateMutability": "view",
      "type": "function"
    },
    {
      "inputs": [
        {
          "internalType": "bytes32",
          "name": "",
          "type": "bytes32"
        },
        {
          "internalType": "uint256",
          "name": "",
          "type": "uint256"
        },
        {
          "internalType": "uint256",
          "name": "",
          "type": "uint256"
        }
      ],
      "name": "orderBook",
      "outputs": [
        {
          "internalType": "uint256",
          "name": "id",
          "type": "uint256"
        },
        {
          "internalType": "address",
          "name": "trader",
          "type": "address"
        },
        {
          "internalType": "enum Dex.Side",
          "name": "side",
          "type": "uint8"
        },
        {
          "internalType": "bytes32",
          "name": "ticker",
          "type": "bytes32"
        },
        {
          "internalType": "uint256",
          "name": "amount",
          "type": "uint256"
        },
        {
          "internalType": "uint256",
          "name": "filled",
          "type": "uint256"
        },
        {
          "internalType": "uint256",
          "name": "price",
          "type": "uint256"
        },
        {
          "internalType": "uint256",
          "name": "date",
          "type": "uint256"
        }
      ],
      "stateMutability": "view",
      "type": "function"
    },
    {
      "inputs": [
        {
          "internalType": "uint256",
          "name": "",
          "type": "uint256"
        }
      ],
      "name": "tokenList",
      "outputs": [
        {
          "internalType": "bytes32",
          "name": "",
          "type": "bytes32"
        }
      ],
      "stateMutability": "view",
      "type": "function"
    },
    {
      "inputs": [
        {
          "internalType": "bytes32",
          "name": "",
          "type": "bytes32"
        }
      ],
      "name": "tokens",
      "outputs": [
        {
          "internalType": "bytes32",
          "name": "ticker",
          "type": "bytes32"
        },
        {
          "internalType": "address",
          "name": "tokenAddress",
          "type": "address"
        }
      ],
      "stateMutability": "view",
      "type": "function"
    },
    {
      "inputs": [
        {
          "internalType": "address",
          "name": "",
          "type": "address"
        },
        {
          "internalType": "bytes32",
          "name": "",
          "type": "bytes32"
        }
      ],
      "name": "traderBalances",
      "outputs": [
        {
          "internalType": "uint256",
          "name": "",
          "type": "uint256"
        }
      ],
      "stateMutability": "view",
      "type": "function"
    },
    {
      "inputs": [
        {
          "internalType": "bytes32",
          "name": "ticker",
          "type": "bytes32"
        },
        {
          "internalType": "address",
          "name": "tokenAddress",
          "type": "address"
        }
      ],
      "name": "addToken",
      "outputs": [],
      "stateMutability": "nonpayable",
      "type": "function"
    },
    {
      "inputs": [
        {
          "internalType": "bytes32",
          "name": "ticker",
          "type": "bytes32"
        },
        {
          "internalType": "enum Dex.Side",
          "name": "side",
          "type": "uint8"
        }
      ],
      "name": "getOrders",
      "outputs": [
        {
          "components": [
            {
              "internalType": "uint256",
              "name": "id",
              "type": "uint256"
            },
            {
              "internalType": "address",
              "name": "trader",
              "type": "address"
            },
            {
              "internalType": "enum Dex.Side",
              "name": "side",
              "type": "uint8"
            },
            {
              "internalType": "bytes32",
              "name": "ticker",
              "type": "bytes32"
            },
            {
              "internalType": "uint256",
              "name": "amount",
              "type": "uint256"
            },
            {
              "internalType": "uint256",
              "name": "filled",
              "type": "uint256"
            },
            {
              "internalType": "uint256",
              "name": "price",
              "type": "uint256"
            },
            {
              "internalType": "uint256",
              "name": "date",
              "type": "uint256"
            }
          ],
          "internalType": "struct Dex.Order[]",
          "name": "",
          "type": "tuple[]"
        }
      ],
      "stateMutability": "view",
      "type": "function"
    },
    {
      "inputs": [],
      "name": "getTokens",
      "outputs": [
        {
          "components": [
            {
              "internalType": "bytes32",
              "name": "ticker",
              "type": "bytes32"
            },
            {
              "internalType": "address",
              "name": "tokenAddress",
              "type": "address"
            }
          ],
          "internalType": "struct Dex.Token[]",
          "name": "",
          "type": "tuple[]"
        }
      ],
      "stateMutability": "view",
      "type": "function"
    },
    {
      "inputs": [
        {
          "internalType": "uint256",
          "name": "amount",
          "type": "uint256"
        },
        {
          "internalType": "bytes32",
          "name": "ticker",
          "type": "bytes32"
        }
      ],
      "name": "deposit",
      "outputs": [],
      "stateMutability": "nonpayable",
      "type": "function"
    },
    {
      "inputs": [
        {
          "internalType": "uint256",
          "name": "amount",
          "type": "uint256"
        },
        {
          "internalType": "bytes32",
          "name": "ticker",
          "type": "bytes32"
        }
      ],
      "name": "withdraw",
      "outputs": [],
      "stateMutability": "nonpayable",
      "type": "function"
    },
    {
      "inputs": [
        {
          "internalType": "bytes32",
          "name": "ticker",
          "type": "bytes32"
        },
        {
          "internalType": "uint256",
          "name": "amount",
          "type": "uint256"
        },
        {
          "internalType": "uint256",
          "name": "price",
          "type": "uint256"
        },
        {
          "internalType": "enum Dex.Side",
          "name": "side",
          "type": "uint8"
        }
      ],
      "name": "createLimitOrder",
      "outputs": [],
      "stateMutability": "nonpayable",
      "type": "function"
    },
    {
      "inputs": [
        {
          "internalType": "bytes32",
          "name": "ticker",
          "type": "bytes32"
        },
        {
          "internalType": "uint256",
          "name": "amount",
          "type": "uint256"
        },
        {
          "internalType": "enum Dex.Side",
          "name": "side",
          "type": "uint8"
        }
      ],
      "name": "createMarketOrder",
      "outputs": [],
      "stateMutability": "nonpayable",
      "type": "function"
    }
  ],
  "bytecode": "0x608060405234801561001057600080fd5b50336000806101000a81548173ffffffffffffffffffffffffffffffffffffffff021916908373ffffffffffffffffffffffffffffffffffffffff160217905550613038806100606000396000f3fe608060405234801561001057600080fd5b50600436106100ea5760003560e01c80639776aacf1161008c578063aa6ca80811610066578063aa6ca80814610277578063c9630cb014610295578063d9c0c950146102b1578063f851a440146102cd576100ea565b80639776aacf1461020f5780639ead72221461022b578063a8d2021a1461025b576100ea565b806372ce957e116100c857806372ce957e146101745780637f2c6246146101a4578063813ad083146101c0578063904194a3146101de576100ea565b80630bb431b6146100ef5780632a58b3301461012657806346e9658b14610144575b600080fd5b6101096004803603810190610104919061230a565b6102eb565b60405161011d989796959493929190612433565b60405180910390f35b61012e61038a565b60405161013b91906124b1565b60405180910390f35b61015e600480360381019061015991906124f1565b610390565b60405161016b91906126bf565b60405180910390f35b61018e6004803603810190610189919061270d565b6104f4565b60405161019b91906124b1565b60405180910390f35b6101be60048036038101906101b9919061274d565b610519565b005b6101c8611283565b6040516101d591906124b1565b60405180910390f35b6101f860048036038101906101f391906127a0565b611289565b6040516102069291906127cd565b60405180910390f35b610229600480360381019061022491906127f6565b6112cd565b005b61024560048036038101906102409190612836565b61141a565b6040516102529190612863565b60405180910390f35b6102756004803603810190610270919061287e565b61143e565b005b61027f611698565b60405161028c919061299c565b60405180910390f35b6102af60048036038101906102aa919061287e565b6117f3565b005b6102cb60048036038101906102c691906129be565b6119bc565b005b6102d5612242565b6040516102e29190612a25565b60405180910390f35b6004602052826000526040600020602052816000526040600020818154811061031357600080fd5b906000526020600020906007020160009250925050508060000154908060010160009054906101000a900473ffffffffffffffffffffffffffffffffffffffff16908060010160149054906101000a900460ff16908060020154908060030154908060040154908060050154908060060154905088565b60055481565b60606004600084815260200190815260200160002060008360018111156103ba576103b96123ad565b5b8152602001908152602001600020805480602002602001604051908101604052809291908181526020016000905b828210156104e8578382906000526020600020906007020160405180610100016040529081600082015481526020016001820160009054906101000a900473ffffffffffffffffffffffffffffffffffffffff1673ffffffffffffffffffffffffffffffffffffffff1673ffffffffffffffffffffffffffffffffffffffff1681526020016001820160149054906101000a900460ff166001811115610491576104906123ad565b5b60018111156104a3576104a26123ad565b5b815260200160028201548152602001600382015481526020016004820154815260200160058201548152602001600682015481525050815260200190600101906103e8565b50505050905092915050565b6003602052816000526040600020602052806000526040600020600091509150505481565b82600073ffffffffffffffffffffffffffffffffffffffff166001600083815260200190815260200160002060010160009054906101000a900473ffffffffffffffffffffffffffffffffffffffff1673ffffffffffffffffffffffffffffffffffffffff16036105bf576040517f08c379a00000000000000000000000000000000000000000000000000000000081526004016105b690612a9d565b60405180910390fd5b837f44414900000000000000000000000000000000000000000000000000000000008103610622576040517f08c379a000000000000000000000000000000000000000000000000000000000815260040161061990612b09565b60405180910390fd5b600180811115610635576106346123ad565b5b836001811115610648576106476123ad565b5b036106e15783600360003373ffffffffffffffffffffffffffffffffffffffff1673ffffffffffffffffffffffffffffffffffffffff16815260200190815260200160002060008781526020019081526020016000205410156106e0576040517f08c379a00000000000000000000000000000000000000000000000000000000081526004016106d790612b75565b60405180910390fd5b5b600060046000878152602001908152602001600020600080600181111561070b5761070a6123ad565b5b86600181111561071e5761071d6123ad565b5b1461072a57600061072d565b60015b600181111561073f5761073e6123ad565b5b815260200190815260200160002090506000808690505b8280549050821080156107695750600081115b1561100a57600083838154811061078357610782612b95565b5b9060005260206000209060070201600401548484815481106107a8576107a7612b95565b5b9060005260206000209060070201600301546107c49190612bf3565b905060008183116107d557826107d7565b815b905080836107e59190612bf3565b9250808585815481106107fb576107fa612b95565b5b9060005260206000209060070201600401600082825461081b9190612c27565b925050819055503373ffffffffffffffffffffffffffffffffffffffff1685858154811061084c5761084b612b95565b5b906000526020600020906007020160010160009054906101000a900473ffffffffffffffffffffffffffffffffffffffff1673ffffffffffffffffffffffffffffffffffffffff168b7fdb0c486e680ba8026643e6a85f8d157b5e7bcd4b32b54d564542570a9eb204166006548989815481106108cc576108cb612b95565b5b906000526020600020906007020160000154868b8b815481106108f2576108f1612b95565b5b90600052602060002090600702016005015442604051610916959493929190612c7d565b60405180910390a4600180811115610931576109306123ad565b5b886001811115610944576109436123ad565b5b03610c0c5780600360003373ffffffffffffffffffffffffffffffffffffffff1673ffffffffffffffffffffffffffffffffffffffff16815260200190815260200160002060008c815260200190815260200160002060008282546109a99190612bf3565b925050819055508484815481106109c3576109c2612b95565b5b906000526020600020906007020160050154816109e09190612cd0565b600360003373ffffffffffffffffffffffffffffffffffffffff1673ffffffffffffffffffffffffffffffffffffffff16815260200190815260200160002060007f444149000000000000000000000000000000000000000000000000000000000081526020019081526020016000206000828254610a5f9190612c27565b925050819055508060036000878781548110610a7e57610a7d612b95565b5b906000526020600020906007020160010160009054906101000a900473ffffffffffffffffffffffffffffffffffffffff1673ffffffffffffffffffffffffffffffffffffffff1673ffffffffffffffffffffffffffffffffffffffff16815260200190815260200160002060008c81526020019081526020016000206000828254610b0a9190612c27565b92505081905550848481548110610b2457610b23612b95565b5b90600052602060002090600702016005015481610b419190612cd0565b60036000878781548110610b5857610b57612b95565b5b906000526020600020906007020160010160009054906101000a900473ffffffffffffffffffffffffffffffffffffffff1673ffffffffffffffffffffffffffffffffffffffff1673ffffffffffffffffffffffffffffffffffffffff16815260200190815260200160002060007f444149000000000000000000000000000000000000000000000000000000000081526020019081526020016000206000828254610c049190612bf3565b925050819055505b60006001811115610c2057610c1f6123ad565b5b886001811115610c3357610c326123ad565b5b03610fdd57848481548110610c4b57610c4a612b95565b5b90600052602060002090600702016005015481610c689190612cd0565b600360003373ffffffffffffffffffffffffffffffffffffffff1673ffffffffffffffffffffffffffffffffffffffff16815260200190815260200160002060007f44414900000000000000000000000000000000000000000000000000000000008152602001908152602001600020541015610d1a576040517f08c379a0000000000000000000000000000000000000000000000000000000008152600401610d1190612d76565b60405180910390fd5b80600360003373ffffffffffffffffffffffffffffffffffffffff1673ffffffffffffffffffffffffffffffffffffffff16815260200190815260200160002060008c81526020019081526020016000206000828254610d7a9190612c27565b92505081905550848481548110610d9457610d93612b95565b5b90600052602060002090600702016005015481610db19190612cd0565b600360003373ffffffffffffffffffffffffffffffffffffffff1673ffffffffffffffffffffffffffffffffffffffff16815260200190815260200160002060007f444149000000000000000000000000000000000000000000000000000000000081526020019081526020016000206000828254610e309190612bf3565b925050819055508060036000878781548110610e4f57610e4e612b95565b5b906000526020600020906007020160010160009054906101000a900473ffffffffffffffffffffffffffffffffffffffff1673ffffffffffffffffffffffffffffffffffffffff1673ffffffffffffffffffffffffffffffffffffffff16815260200190815260200160002060008c81526020019081526020016000206000828254610edb9190612bf3565b92505081905550848481548110610ef557610ef4612b95565b5b90600052602060002090600702016005015481610f129190612cd0565b60036000878781548110610f2957610f28612b95565b5b906000526020600020906007020160010160009054906101000a900473ffffffffffffffffffffffffffffffffffffffff1673ffffffffffffffffffffffffffffffffffffffff1673ffffffffffffffffffffffffffffffffffffffff16815260200190815260200160002060007f444149000000000000000000000000000000000000000000000000000000000081526020019081526020016000206000828254610fd59190612c27565b925050819055505b60066000815480929190610ff090612d96565b9190505550838061100090612d96565b9450505050610756565b600091505b82805490508210801561106957508282815481106110305761102f612b95565b5b90600052602060002090600702016003015483838154811061105557611054612b95565b5b906000526020600020906007020160040154145b156112795760008290505b600184805490506110859190612bf3565b8110156111d0578360018261109a9190612c27565b815481106110ab576110aa612b95565b5b90600052602060002090600702018482815481106110cc576110cb612b95565b5b9060005260206000209060070201600082015481600001556001820160009054906101000a900473ffffffffffffffffffffffffffffffffffffffff168160010160006101000a81548173ffffffffffffffffffffffffffffffffffffffff021916908373ffffffffffffffffffffffffffffffffffffffff1602179055506001820160149054906101000a900460ff168160010160146101000a81548160ff02191690836001811115611183576111826123ad565b5b0217905550600282015481600201556003820154816003015560048201548160040155600582015481600501556006820154816006015590505080806111c890612d96565b915050611074565b50828054806111e2576111e1612dde565b5b60019003818190600052602060002090600702016000808201600090556001820160006101000a81549073ffffffffffffffffffffffffffffffffffffffff02191690556001820160146101000a81549060ff02191690556002820160009055600382016000905560048201600090556005820160009055600682016000905550509055818061127190612d96565b92505061100f565b5050505050505050565b60065481565b60016020528060005260406000206000915090508060000154908060010160009054906101000a900473ffffffffffffffffffffffffffffffffffffffff16905082565b60008054906101000a900473ffffffffffffffffffffffffffffffffffffffff1673ffffffffffffffffffffffffffffffffffffffff163373ffffffffffffffffffffffffffffffffffffffff161461135b576040517f08c379a000000000000000000000000000000000000000000000000000000000815260040161135290612e59565b60405180910390fd5b60405180604001604052808381526020018273ffffffffffffffffffffffffffffffffffffffff16815250600160008481526020019081526020016000206000820151816000015560208201518160010160006101000a81548173ffffffffffffffffffffffffffffffffffffffff021916908373ffffffffffffffffffffffffffffffffffffffff16021790555090505060028290806001815401808255809150506001900390600052602060002001600090919091909150555050565b6002818154811061142a57600080fd5b906000526020600020016000915090505481565b80600073ffffffffffffffffffffffffffffffffffffffff166001600083815260200190815260200160002060010160009054906101000a900473ffffffffffffffffffffffffffffffffffffffff1673ffffffffffffffffffffffffffffffffffffffff16036114e4576040517f08c379a00000000000000000000000000000000000000000000000000000000081526004016114db90612a9d565b60405180910390fd5b82600360003373ffffffffffffffffffffffffffffffffffffffff1673ffffffffffffffffffffffffffffffffffffffff1681526020019081526020016000206000848152602001908152602001600020541015611577576040517f08c379a000000000000000000000000000000000000000000000000000000000815260040161156e90612ec5565b60405180910390fd5b82600360003373ffffffffffffffffffffffffffffffffffffffff1673ffffffffffffffffffffffffffffffffffffffff168152602001908152602001600020600084815260200190815260200160002060008282546115d79190612bf3565b925050819055506001600083815260200190815260200160002060010160009054906101000a900473ffffffffffffffffffffffffffffffffffffffff1673ffffffffffffffffffffffffffffffffffffffff1663a9059cbb33856040518363ffffffff1660e01b815260040161164f929190612ee5565b6020604051808303816000875af115801561166e573d6000803e3d6000fd5b505050506040513d601f19601f820116820180604052508101906116929190612f46565b50505050565b6060600060028054905067ffffffffffffffff8111156116bb576116ba612f73565b5b6040519080825280602002602001820160405280156116f457816020015b6116e1612266565b8152602001906001900390816116d95790505b50905060005b6002805490508110156117eb576040518060400160405280600160006002858154811061172a57611729612b95565b5b90600052602060002001548152602001908152602001600020600001548152602001600160006002858154811061176457611763612b95565b5b9060005260206000200154815260200190815260200160002060010160009054906101000a900473ffffffffffffffffffffffffffffffffffffffff1673ffffffffffffffffffffffffffffffffffffffff168152508282815181106117cd576117cc612b95565b5b602002602001018190525080806117e390612d96565b9150506116fa565b508091505090565b80600073ffffffffffffffffffffffffffffffffffffffff166001600083815260200190815260200160002060010160009054906101000a900473ffffffffffffffffffffffffffffffffffffffff1673ffffffffffffffffffffffffffffffffffffffff1603611899576040517f08c379a000000000000000000000000000000000000000000000000000000000815260040161189090612a9d565b60405180910390fd5b6001600083815260200190815260200160002060010160009054906101000a900473ffffffffffffffffffffffffffffffffffffffff1673ffffffffffffffffffffffffffffffffffffffff166323b872dd3330866040518463ffffffff1660e01b815260040161190c93929190612fa2565b6020604051808303816000875af115801561192b573d6000803e3d6000fd5b505050506040513d601f19601f8201168201806040525081019061194f9190612f46565b5082600360003373ffffffffffffffffffffffffffffffffffffffff1673ffffffffffffffffffffffffffffffffffffffff168152602001908152602001600020600084815260200190815260200160002060008282546119b09190612c27565b92505081905550505050565b83600073ffffffffffffffffffffffffffffffffffffffff166001600083815260200190815260200160002060010160009054906101000a900473ffffffffffffffffffffffffffffffffffffffff1673ffffffffffffffffffffffffffffffffffffffff1603611a62576040517f08c379a0000000000000000000000000000000000000000000000000000000008152600401611a5990612a9d565b60405180910390fd5b847f44414900000000000000000000000000000000000000000000000000000000008103611ac5576040517f08c379a0000000000000000000000000000000000000000000000000000000008152600401611abc90612b09565b60405180910390fd5b600180811115611ad857611ad76123ad565b5b836001811115611aeb57611aea6123ad565b5b03611b885784600360003373ffffffffffffffffffffffffffffffffffffffff1673ffffffffffffffffffffffffffffffffffffffff1681526020019081526020016000206000888152602001908152602001600020541015611b83576040517f08c379a0000000000000000000000000000000000000000000000000000000008152600401611b7a90612b75565b60405180910390fd5b611c47565b8385611b949190612cd0565b600360003373ffffffffffffffffffffffffffffffffffffffff1673ffffffffffffffffffffffffffffffffffffffff16815260200190815260200160002060007f44414900000000000000000000000000000000000000000000000000000000008152602001908152602001600020541015611c46576040517f08c379a0000000000000000000000000000000000000000000000000000000008152600401611c3d90612d76565b60405180910390fd5b5b6000600460008881526020019081526020016000206000856001811115611c7157611c706123ad565b5b815260200190815260200160002090508060405180610100016040528060055481526020013373ffffffffffffffffffffffffffffffffffffffff168152602001866001811115611cc557611cc46123ad565b5b8152602001898152602001888152602001600081526020018781526020014281525090806001815401808255809150506001900390600052602060002090600702016000909190919091506000820151816000015560208201518160010160006101000a81548173ffffffffffffffffffffffffffffffffffffffff021916908373ffffffffffffffffffffffffffffffffffffffff16021790555060408201518160010160146101000a81548160ff02191690836001811115611d8c57611d8b6123ad565b5b0217905550606082015181600201556080820151816003015560a0820151816004015560c0820151816005015560e082015181600601555050600060018280549050611dd89190612bf3565b90505b60008111156122205760006001811115611df857611df76123ad565b5b856001811115611e0b57611e0a6123ad565b5b148015611e6b5750818181548110611e2657611e25612b95565b5b90600052602060002090600702016005015482600183611e469190612bf3565b81548110611e5757611e56612b95565b5b906000526020600020906007020160050154115b61222057600180811115611e8257611e816123ad565b5b856001811115611e9557611e946123ad565b5b148015611ef55750818181548110611eb057611eaf612b95565b5b90600052602060002090600702016005015482600183611ed09190612bf3565b81548110611ee157611ee0612b95565b5b906000526020600020906007020160050154105b61222057600082600183611f099190612bf3565b81548110611f1a57611f19612b95565b5b906000526020600020906007020160405180610100016040529081600082015481526020016001820160009054906101000a900473ffffffffffffffffffffffffffffffffffffffff1673ffffffffffffffffffffffffffffffffffffffff1673ffffffffffffffffffffffffffffffffffffffff1681526020016001820160149054906101000a900460ff166001811115611fb957611fb86123ad565b5b6001811115611fcb57611fca6123ad565b5b815260200160028201548152602001600382015481526020016004820154815260200160058201548152602001600682015481525050905082828154811061201657612015612b95565b5b9060005260206000209060070201836001846120329190612bf3565b8154811061204357612042612b95565b5b9060005260206000209060070201600082015481600001556001820160009054906101000a900473ffffffffffffffffffffffffffffffffffffffff168160010160006101000a81548173ffffffffffffffffffffffffffffffffffffffff021916908373ffffffffffffffffffffffffffffffffffffffff1602179055506001820160149054906101000a900460ff168160010160146101000a81548160ff021916908360018111156120fa576120f96123ad565b5b021790555060028201548160020155600382015481600301556004820154816004015560058201548160050155600682015481600601559050508083838154811061214857612147612b95565b5b90600052602060002090600702016000820151816000015560208201518160010160006101000a81548173ffffffffffffffffffffffffffffffffffffffff021916908373ffffffffffffffffffffffffffffffffffffffff16021790555060408201518160010160146101000a81548160ff021916908360018111156121d2576121d16123ad565b5b0217905550606082015181600201556080820151816003015560a0820151816004015560c0820151816005015560e08201518160060155905050818061221790612fd9565b92505050611ddb565b6005600081548092919061223390612d96565b91905055505050505050505050565b60008054906101000a900473ffffffffffffffffffffffffffffffffffffffff1681565b604051806040016040528060008019168152602001600073ffffffffffffffffffffffffffffffffffffffff1681525090565b600080fd5b6000819050919050565b6122b18161229e565b81146122bc57600080fd5b50565b6000813590506122ce816122a8565b92915050565b6000819050919050565b6122e7816122d4565b81146122f257600080fd5b50565b600081359050612304816122de565b92915050565b60008060006060848603121561232357612322612299565b5b6000612331868287016122bf565b9350506020612342868287016122f5565b9250506040612353868287016122f5565b9150509250925092565b612366816122d4565b82525050565b600073ffffffffffffffffffffffffffffffffffffffff82169050919050565b60006123978261236c565b9050919050565b6123a78161238c565b82525050565b7f4e487b7100000000000000000000000000000000000000000000000000000000600052602160045260246000fd5b600281106123ed576123ec6123ad565b5b50565b60008190506123fe826123dc565b919050565b600061240e826123f0565b9050919050565b61241e81612403565b82525050565b61242d8161229e565b82525050565b600061010082019050612449600083018b61235d565b612456602083018a61239e565b6124636040830189612415565b6124706060830188612424565b61247d608083018761235d565b61248a60a083018661235d565b61249760c083018561235d565b6124a460e083018461235d565b9998505050505050505050565b60006020820190506124c6600083018461235d565b92915050565b600281106124d957600080fd5b50565b6000813590506124eb816124cc565b92915050565b6000806040838503121561250857612507612299565b5b6000612516858286016122bf565b9250506020612527858286016124dc565b9150509250929050565b600081519050919050565b600082825260208201905092915050565b6000819050602082019050919050565b612566816122d4565b82525050565b6125758161238c565b82525050565b61258481612403565b82525050565b6125938161229e565b82525050565b610100820160008201516125b0600085018261255d565b5060208201516125c3602085018261256c565b5060408201516125d6604085018261257b565b5060608201516125e9606085018261258a565b5060808201516125fc608085018261255d565b5060a082015161260f60a085018261255d565b5060c082015161262260c085018261255d565b5060e082015161263560e085018261255d565b50505050565b60006126478383612599565b6101008301905092915050565b6000602082019050919050565b600061266c82612531565b612676818561253c565b93506126818361254d565b8060005b838110156126b2578151612699888261263b565b97506126a483612654565b925050600181019050612685565b5085935050505092915050565b600060208201905081810360008301526126d98184612661565b905092915050565b6126ea8161238c565b81146126f557600080fd5b50565b600081359050612707816126e1565b92915050565b6000806040838503121561272457612723612299565b5b6000612732858286016126f8565b9250506020612743858286016122bf565b9150509250929050565b60008060006060848603121561276657612765612299565b5b6000612774868287016122bf565b9350506020612785868287016122f5565b9250506040612796868287016124dc565b9150509250925092565b6000602082840312156127b6576127b5612299565b5b60006127c4848285016122bf565b91505092915050565b60006040820190506127e26000830185612424565b6127ef602083018461239e565b9392505050565b6000806040838503121561280d5761280c612299565b5b600061281b858286016122bf565b925050602061282c858286016126f8565b9150509250929050565b60006020828403121561284c5761284b612299565b5b600061285a848285016122f5565b91505092915050565b60006020820190506128786000830184612424565b92915050565b6000806040838503121561289557612894612299565b5b60006128a3858286016122f5565b92505060206128b4858286016122bf565b9150509250929050565b600081519050919050565b600082825260208201905092915050565b6000819050602082019050919050565b604082016000820151612900600085018261258a565b506020820151612913602085018261256c565b50505050565b600061292583836128ea565b60408301905092915050565b6000602082019050919050565b6000612949826128be565b61295381856128c9565b935061295e836128da565b8060005b8381101561298f5781516129768882612919565b975061298183612931565b925050600181019050612962565b5085935050505092915050565b600060208201905081810360008301526129b6818461293e565b905092915050565b600080600080608085870312156129d8576129d7612299565b5b60006129e6878288016122bf565b94505060206129f7878288016122f5565b9350506040612a08878288016122f5565b9250506060612a19878288016124dc565b91505092959194509250565b6000602082019050612a3a600083018461239e565b92915050565b600082825260208201905092915050565b7f7468697320746f6b656e20646f6573206e6f7420657869737400000000000000600082015250565b6000612a87601983612a40565b9150612a9282612a51565b602082019050919050565b60006020820190508181036000830152612ab681612a7a565b9050919050565b7f63616e6e6f742074726164652044414900000000000000000000000000000000600082015250565b6000612af3601083612a40565b9150612afe82612abd565b602082019050919050565b60006020820190508181036000830152612b2281612ae6565b9050919050565b7f746f6b656e2062616c616e636520746f6f206c6f770000000000000000000000600082015250565b6000612b5f601583612a40565b9150612b6a82612b29565b602082019050919050565b60006020820190508181036000830152612b8e81612b52565b9050919050565b7f4e487b7100000000000000000000000000000000000000000000000000000000600052603260045260246000fd5b7f4e487b7100000000000000000000000000000000000000000000000000000000600052601160045260246000fd5b6000612bfe826122d4565b9150612c09836122d4565b925082821015612c1c57612c1b612bc4565b5b828203905092915050565b6000612c32826122d4565b9150612c3d836122d4565b9250827fffffffffffffffffffffffffffffffffffffffffffffffffffffffffffffffff03821115612c7257612c71612bc4565b5b828201905092915050565b600060a082019050612c92600083018861235d565b612c9f602083018761235d565b612cac604083018661235d565b612cb9606083018561235d565b612cc6608083018461235d565b9695505050505050565b6000612cdb826122d4565b9150612ce6836122d4565b9250817fffffffffffffffffffffffffffffffffffffffffffffffffffffffffffffffff0483118215151615612d1f57612d1e612bc4565b5b828202905092915050565b7f4441492062616c616e636520746f6f206c6f7700000000000000000000000000600082015250565b6000612d60601383612a40565b9150612d6b82612d2a565b602082019050919050565b60006020820190508181036000830152612d8f81612d53565b9050919050565b6000612da1826122d4565b91507fffffffffffffffffffffffffffffffffffffffffffffffffffffffffffffffff8203612dd357612dd2612bc4565b5b600182019050919050565b7f4e487b7100000000000000000000000000000000000000000000000000000000600052603160045260246000fd5b7f6f6e6c792061646d696e00000000000000000000000000000000000000000000600082015250565b6000612e43600a83612a40565b9150612e4e82612e0d565b602082019050919050565b60006020820190508181036000830152612e7281612e36565b9050919050565b7f756e737566696369656e742062616c616e636500000000000000000000000000600082015250565b6000612eaf601383612a40565b9150612eba82612e79565b602082019050919050565b60006020820190508181036000830152612ede81612ea2565b9050919050565b6000604082019050612efa600083018561239e565b612f07602083018461235d565b9392505050565b60008115159050919050565b612f2381612f0e565b8114612f2e57600080fd5b50565b600081519050612f4081612f1a565b92915050565b600060208284031215612f5c57612f5b612299565b5b6000612f6a84828501612f31565b91505092915050565b7f4e487b7100000000000000000000000000000000000000000000000000000000600052604160045260246000fd5b6000606082019050612fb7600083018661239e565b612fc4602083018561239e565b612fd1604083018461235d565b949350505050565b6000612fe4826122d4565b915060008203612ff757612ff6612bc4565b5b60018203905091905056fea2646970667358221220a9f927a7a518f3a1167b58c9a4eb69bad46803f2d1a90f1f17f680a0e994a53464736f6c634300080f0033",
  "immutableReferences": {},
  "source": "//SPDX-License-Identifier: UNLICENSED\r\n\r\npragma solidity 0.8.15;\r\n//Below solidity pragma statement (needed because we return an array of struct in function):\r\npragma experimental ABIEncoderV2;\r\n\r\nimport '@openzeppelin/contracts/token/ERC20/IERC20.sol';\r\n\r\n\r\ncontract Dex {\r\n\r\n    //this keyword tells the library to replace the arguments type of the function buy the ones we specify if needed\r\n    \r\n    address public admin; //admin address with privilege access to certain functions (shouldn't it be private?)\r\n\r\n    //token related variables/events\r\n    struct Token {\r\n        bytes32 ticker;\r\n        address tokenAddress;\r\n    }\r\n    \r\n    mapping(bytes32 => Token) public tokens; //mapping linking tokens' names to their info (ticker and address)    \r\n    bytes32[] public tokenList; //list of all existing tokens \r\n    mapping(address => mapping(bytes32 => uint)) public traderBalances; //trader (address) balance (uint) of each tokens (bytes32)\r\n    bytes32 constant DAI = bytes32('DAI'); //better readability in the code + gas efficient as we cast the value only once\r\n\r\n    //order related variables/events\r\n    enum Side {\r\n        BUY,\r\n        SELL\r\n    }\r\n\r\n    struct Order {\r\n        uint id;\r\n        address trader;\r\n        Side side;\r\n        bytes32 ticker;\r\n        uint amount;\r\n        uint filled;\r\n        uint price;\r\n        uint date;\r\n    }\r\n\r\n    event NewTrade(\r\n        uint tradeId,\r\n        uint orderId,\r\n        bytes32 indexed ticker,\r\n        address indexed trader1,\r\n        address indexed trader2,\r\n        uint amount,\r\n        uint price,\r\n        uint date\r\n    );\r\n\r\n    mapping(bytes32 => mapping(uint => Order[])) public orderBook; //uint here is the Side, as enum can be casted to uint\r\n    uint public nextOrderId;\r\n    uint public nextTradeId;\r\n\r\n\r\n    //FUNCTIONS //\r\n\r\n    constructor() {\r\n        admin = msg.sender;\r\n    }\r\n\r\n    function addToken(\r\n        bytes32 ticker, \r\n        address tokenAddress) \r\n        onlyAdmin \r\n        external \r\n    {\r\n        tokens[ticker] = Token(ticker, tokenAddress);\r\n        tokenList.push(ticker);\r\n    }\r\n\r\n    //pragma experimental ABIEncoderV2 used above because we return an array of struct;\r\n    function getOrders(\r\n        bytes32 ticker,\r\n        Side side) \r\n        external\r\n        view\r\n        returns(Order[] memory)\r\n    {\r\n        return orderBook[ticker][uint(side)];\r\n    }\r\n\r\n\r\n    //make an article on how to export a mapping to a front-end\r\n    function getTokens() \r\n      external \r\n      view \r\n      returns(Token[] memory) {\r\n      Token[] memory _tokens = new Token[](tokenList.length);\r\n      for (uint i = 0; i < tokenList.length; i++) {\r\n        _tokens[i] = Token(\r\n          tokens[tokenList[i]].ticker,\r\n          tokens[tokenList[i]].tokenAddress\r\n        );\r\n      }\r\n      return _tokens;\r\n    }\r\n\r\n    // user balance interaction functions //\r\n\r\n    function deposit(\r\n        uint amount, \r\n        bytes32 ticker)\r\n        tokenExist(ticker) \r\n        external \r\n    {\r\n        IERC20(tokens[ticker].tokenAddress).transferFrom(\r\n            msg.sender,\r\n            address(this),\r\n            amount\r\n        );\r\n        traderBalances[msg.sender][ticker] += amount;\r\n    }\r\n\r\n    function withdraw(\r\n        uint amount,\r\n        bytes32 ticker)\r\n        tokenExist(ticker)\r\n        external\r\n    {\r\n        require(traderBalances[msg.sender][ticker] >= amount, \"unsuficient balance\");\r\n        traderBalances[msg.sender][ticker] -= amount;\r\n        IERC20(tokens[ticker].tokenAddress).transfer(msg.sender, amount);\r\n    }\r\n\r\n    // orders functions //\r\n\r\n    function createLimitOrder(\r\n        bytes32 ticker,\r\n        uint amount,\r\n        uint price,\r\n        Side side\r\n        )\r\n        tokenExist(ticker)\r\n        tokenIsNotDai(ticker)\r\n        external\r\n    {\r\n        if (side == Side.SELL) {\r\n            require(traderBalances[msg.sender][ticker] >= amount, \"token balance too low\");\r\n        } else {\r\n            require(traderBalances[msg.sender][DAI] >= amount*price, \"DAI balance too low\");\r\n        }\r\n        //pointer to orderBook[ticker][side] /!\\ and not a new storage as we could think\r\n        Order [] storage orders = orderBook[ticker][uint(side)];\r\n        orders.push(Order(nextOrderId, msg.sender, side,ticker,amount,0,price,block.timestamp));\r\n        \r\n        uint i = orders.length -1;\r\n        while (i>0){\r\n            if(side == Side.BUY && orders[i-1].price > orders[i].price){\r\n                break;\r\n            }\r\n            if(side == Side.SELL && orders[i-1].price < orders[i].price){\r\n                break;\r\n            }\r\n            Order memory order = orders[i -1];\r\n            orders[i-1] = orders [i];\r\n            orders [i] = order;\r\n            i--;\r\n        }\r\n        nextOrderId ++;\r\n    }\r\n\r\n    function createMarketOrder(\r\n        bytes32 ticker,\r\n        uint amount,\r\n        Side side\r\n        )\r\n        tokenExist(ticker)\r\n        tokenIsNotDai(ticker)\r\n        external\r\n    {\r\n        if (side == Side.SELL) {\r\n            require(traderBalances[msg.sender][ticker] >= amount, \"token balance too low\");\r\n        }\r\n        //if we buy, we want to check seller order book, if we sell, the opposite\r\n        Order[] storage orders = orderBook[ticker]\r\n        [uint(side == Side.BUY ? Side.SELL : Side.BUY)];\r\n        uint i;\r\n        uint remaining = amount;\r\n\r\n        while(i < orders.length && remaining > 0) {\r\n            //here we don't search for the better price, we fill orders from older to newer\r\n            uint available = orders[i].amount - orders[i].filled;\r\n            uint matched = (remaining > available) ? available : remaining;\r\n            remaining -= matched;\r\n            orders[i].filled += matched;\r\n            emit NewTrade(\r\n                nextTradeId,\r\n                orders[i].id, \r\n                ticker, \r\n                orders[i].trader, \r\n                msg.sender,\r\n                matched,\r\n                orders[i].price,\r\n                block.timestamp);\r\n\r\n            if(side == Side.SELL) {\r\n                traderBalances[msg.sender][ticker] -= matched;\r\n                traderBalances[msg.sender][DAI] += matched*orders[i].price;\r\n                traderBalances[orders[i].trader][ticker] += matched;\r\n                traderBalances[orders[i].trader][DAI] -= matched*orders[i].price;                \r\n            }\r\n\r\n            if(side == Side.BUY) {\r\n                require(traderBalances[msg.sender][DAI] >=matched*orders[i].price, \"DAI balance too low\");\r\n                traderBalances[msg.sender][ticker] += matched;\r\n                traderBalances[msg.sender][DAI] -= matched*orders[i].price;\r\n                traderBalances[orders[i].trader][ticker] -= matched;\r\n                traderBalances[orders[i].trader][DAI] += matched*orders[i].price;                \r\n            }\r\n            nextTradeId++;\r\n            i++;\r\n        }\r\n        i = 0;\r\n        //we start from the begining of orderbook, each time an order is filled\r\n        //we shift the whole array left, and pop the last element as it is a duplicate of last one\r\n        while (i <orders.length && orders[i].filled == orders[i].amount) {\r\n            for(uint j = i; j < orders.length - 1; j++){\r\n                orders[j] = orders[j+1];\r\n            }\r\n            orders.pop();\r\n            i++;\r\n        }\r\n    }\r\n    \r\n    // modifiers //\r\n\r\n    modifier tokenExist(bytes32 ticker) {\r\n        require(tokens[ticker].tokenAddress != address(0), \"this token does not exist\");\r\n        _;\r\n    }\r\n\r\n    modifier tokenIsNotDai(bytes32 ticker) {\r\n        require( ticker != DAI, 'cannot trade DAI');\r\n        _;\r\n    }\r\n\r\n    modifier onlyAdmin() {\r\n        require(msg.sender == admin, \"only admin\");\r\n        _;\r\n    }\r\n}\r\n",
  "sourcePath": "C:\\Users\\Salah\\Documents\\Coding\\EatTheBlocks\\DEX\\contracts\\Dex.sol",
  "compiler": {
    "name": "solc",
    "version": "0.8.15+commit.e14f2714.Emscripten.clang"
  },
  "schemaVersion": "3.4.6",
  "updatedAt": "2022-08-08T19:01:48.262Z",
  "devdoc": {
    "kind": "dev",
    "methods": {},
    "version": 1
  },
  "userdoc": {
    "kind": "user",
    "methods": {},
    "version": 1
  }
}